{
  "contractName": "Tester",
  "abi": [
    {
      "inputs": [],
      "name": "currentAddr",
      "outputs": [
        {
          "internalType": "address",
          "name": "",
          "type": "address"
        }
      ],
      "stateMutability": "view",
      "type": "function",
      "constant": true
    },
    {
      "inputs": [],
      "name": "currentInt",
      "outputs": [
        {
          "internalType": "uint256",
          "name": "",
          "type": "uint256"
        }
      ],
      "stateMutability": "view",
      "type": "function",
      "constant": true
    },
    {
      "inputs": [],
      "name": "sym",
      "outputs": [
        {
          "internalType": "string",
          "name": "",
          "type": "string"
        }
      ],
      "stateMutability": "view",
      "type": "function",
      "constant": true
    },
    {
      "inputs": [
        {
          "internalType": "string",
          "name": "_sym",
          "type": "string"
        },
        {
          "internalType": "address",
          "name": "new_addr",
          "type": "address"
        },
        {
          "internalType": "uint256",
          "name": "new_int",
          "type": "uint256"
        }
      ],
      "name": "setOnlyStringBefore",
      "outputs": [],
      "stateMutability": "nonpayable",
      "type": "function"
    },
    {
      "inputs": [
        {
          "internalType": "address",
          "name": "new_addr",
          "type": "address"
        },
        {
          "internalType": "uint256",
          "name": "new_int",
          "type": "uint256"
        },
        {
          "internalType": "string",
          "name": "_sym",
          "type": "string"
        }
      ],
      "name": "setOnlyStringAfter",
      "outputs": [],
      "stateMutability": "nonpayable",
      "type": "function"
    },
    {
      "inputs": [
        {
          "internalType": "address",
          "name": "new_addr",
          "type": "address"
        },
        {
          "internalType": "uint256",
          "name": "new_int",
          "type": "uint256"
        }
      ],
      "name": "setOnlyAddrAndInt",
      "outputs": [],
      "stateMutability": "nonpayable",
      "type": "function"
    }
  ],
  "bytecode": "0x608060405234801561001057600080fd5b506104c2806100206000396000f3fe608060405234801561001057600080fd5b50600436106100625760003560e01c80630875f51314610067578063138afc34146100815780631a8eacf61461013e57806383813a28146101f2578063a91714121461026f578063dfeff89d14610293575b600080fd5b61006f6102bf565b60408051918252519081900360200190f35b61013c6004803603606081101561009757600080fd5b6001600160a01b03823516916020810135918101906060810160408201356401000000008111156100c757600080fd5b8201836020820111156100d957600080fd5b803590602001918460018302840111640100000000831117156100fb57600080fd5b91908080601f0160208091040260200160405190810160405280939291908181526020018383808284376000920191909152509295506102c5945050505050565b005b61013c6004803603606081101561015457600080fd5b81019060208101813564010000000081111561016f57600080fd5b82018360208201111561018157600080fd5b803590602001918460018302840111640100000000831117156101a357600080fd5b91908080601f016020809104026020016040519081016040528093929190818152602001838380828437600092019190915250929550506001600160a01b0383351693505050602001356102fe565b6101fa610331565b6040805160208082528351818301528351919283929083019185019080838360005b8381101561023457818101518382015260200161021c565b50505050905090810190601f1680156102615780820380516001836020036101000a031916815260200191505b509250505060405180910390f35b6102776103bc565b604080516001600160a01b039092168252519081900360200190f35b61013c600480360360408110156102a957600080fd5b506001600160a01b0381351690602001356103cb565b60015481565b600080546001600160a01b0319166001600160a01b038516179055600182905580516102f89060029060208401906103f1565b50505050565b600080546001600160a01b0319166001600160a01b038416179055600181905582516102f89060029060208601906103f1565b6002805460408051602060018416156101000260001901909316849004601f810184900484028201840190925281815292918301828280156103b45780601f10610389576101008083540402835291602001916103b4565b820191906000526020600020905b81548152906001019060200180831161039757829003601f168201915b505050505081565b6000546001600160a01b031681565b600080546001600160a01b0319166001600160a01b039390931692909217909155600155565b828054600181600116156101000203166002900490600052602060002090601f016020900481019282601f1061043257805160ff191683800117855561045f565b8280016001018555821561045f579182015b8281111561045f578251825591602001919060010190610444565b5061046b92915061046f565b5090565b61048991905b8082111561046b5760008155600101610475565b9056fea2646970667358221220f1b49df861ddf0534522508ba2f91ad7475e24643906ae46d6b977101f8ef7f264736f6c63430006020033",
  "source": "// SPDX-License-Identifier: MIT\npragma solidity >=0.4.22 <0.9.0;\n\ncontract Tester {\n  address public currentAddr;\n  uint256 public currentInt;\n  string public sym;\n\n  function setOnlyStringBefore(string memory _sym, address new_addr, uint256 new_int) public {\n    currentAddr = new_addr;\n    currentInt = new_int;\n    sym = _sym;\n  }\n\n  function setOnlyStringAfter(address new_addr, uint256 new_int, string memory _sym) public {\n    currentAddr = new_addr;\n    currentInt = new_int;\n    sym = _sym;\n  }\n\n  function setOnlyAddrAndInt(address new_addr, uint256 new_int) public {\n    currentAddr = new_addr;\n    currentInt = new_int;\n  }\n}\n",
  "sourcePath": "/home/baxter/Development/Mythical/truffles/k8s_tester/contracts/Tester.sol",
  "compiler": {
    "name": "solc",
    "version": "0.6.2+commit.bacdbe57.Emscripten.clang"
  },
  "schemaVersion": "3.3.3",
  "updatedAt": "2021-05-03T17:19:13.649Z",
  "networkType": "ethereum",
  "devdoc": {
    "methods": {}
  },
  "userdoc": {
    "methods": {}
  }
}